:100000000C94F5030C9421040C9421040C94210409
:100010000C9421040C9421040C9421040C942104CC
:100020000C9421040C9421040C9421040C942104BC
:100030000C9421040C9421040C9421040C942104AC
:100040000C9421040C9421040C9421040C9421049C
:100050000C9421040C9421040C9421040C94EC0FB6
:100060000C9421040C94D8120C9408140C942104C0
:100070000C9421040C9421040C9421040C9421046C
:100080000C9421040C9421040C9421040C9421045C
:100090000C9411130C9447140C9421040C94210417
:1000A0000C9421040C9421040C9421040C9421043C
:1000B0000C9421040C9421040C9421040C9421042C
:1000C0000C9421040C9421040C9421040C944A13E4
:1000D0000C9486140C9421040C9483130C94C51472
:1000E0000C94210400002100240027002A002D0088
:1000F0003000330001010000040107010A01000083
:100100002200250028002B002E00310034000201BF
:100110000000050108010B0100002000230026005B
:1001200029002C002F00320000010000030106010D
:10013000090105050505070508080808020202026D
:100140000A0A080804040404010101010101010173
:100150000303030303030303040707070C0C0C0C3E
:100160000C0C0C0C02020202060606060606060627
:100170000B0B0B0B0B0B0B0B0102102020080810B4
:100180002040102040800201020108040201010207
:1001900004081020408080402010080402018004E0
:1001A000020180402010080402010804020101023B
:1001B0000408102040800102040810204080000044
:1001C000090A02080B0C0D070603040100000000D9
:1001D000000000000000000000000000000000001F
:1001E0000000000000000000000011100F000000DF
:1001F00000000000000000000000000000000000FF
:100200000000000000000000003E5B4F5B3E3E6BC4
:100210004F6B3E1C3E7C3E1C183C7E3C181C577DA0
:10022000571C1C5E7F5E1C00183C1800FFE7C3E7EC
:10023000FF0018241800FFE7DBE7FF30483A060EFE
:100240002629792926407F050507407F05253F5A45
:100250003CE73C5A7F3E1C1C08081C1C3E7F1422B5
:100260007F22145F5F005F5F06097F017F00668960
:10027000956A606060606094A2FFA29408047E04A6
:100280000810207E201008082A1C08081C2A0808CC
:100290001E101010100C1E0C1E0C30383E3830068C
:1002A0000E3E0E06000000000000005F0000000788
:1002B000000700147F147F14242A7F2A12231308B6
:1002C000646236495620500008070300001C224192
:1002D000000041221C002A1C7F1C2A08083E080836
:1002E00000807030000808080808000060600020E6
:1002F000100804023E5149453E00427F40007249C9
:100300004949462141494D331814127F102745456C
:1003100045393C4A49493141211109073649494982
:1003200036464949291E00001400000040340000F0
:100330000008142241141414141400412214080259
:10034000015909063E415D594E7C1211127C7F49CC
:100350004949363E414141227F4141413E7F494921
:1003600049417F090909013E414151737F0808084D
:100370007F00417F41002040413F017F081422411E
:100380007F404040407F021C027F7F0408107F3E78
:100390004141413E7F090909063E4151215E7F09E5
:1003A000192946264949493203017F01033F40404C
:1003B000403F1F2040201F3F4038403F6314081437
:1003C0006303047804036159494D43007F4141416F
:1003D0000204081020004141417F04020102044050
:1003E00040404040000307080020545478407F28D4
:1003F0004444383844444428384444287F385454CA
:10040000541800087E090218A4A49C787F080404EC
:100410007800447D40002040403D007F102844008B
:1004200000417F40007C047804787C08040478381C
:1004300044444438FC1824241818242418FC7C084C
:10044000040408485454542404043F44243C4040C9
:10045000207C1C2040201C3C4030403C442810287C
:10046000444C9090907C4464544C440008364100C5
:100470000000770000004136080002010204023C3F
:100480002623263C1EA1A161123A4040207A38540E
:100490005455592155557941215454784121555489
:1004A000784020545579400C1E52721239555555DA
:1004B00059395454545939555454580000457C41C5
:1004C0000002457D420001457C40F0292429F0F0DE
:1004D000282528F07C545545002054547C547C0A2F
:1004E000097F4932494949323248484832324A48FC
:1004F00048303A4141217A3A42402078009DA0A0FC
:100500007D39444444393D4040403D3C24FF24244F
:10051000487E4943662B2FFC2F2BFF0929F620C06C
:10052000887E090320545479410000447D413048BD
:10053000484A32384040227A007A0A0A727D0D1900
:10054000317D2629292F28262929292630484D4062
:1005500020380808080808080808382F10C8ACBA5E
:100560002F102834FA00007B000008142A142222DD
:10057000142A1408AA005500AAAA55AA55AA0000D0
:1005800000FF00101010FF00141414FF001010FFE3
:1005900000FF1010F010F0141414FC001414F700F5
:1005A000FF0000FF00FF1414F404FC141417101FC4
:1005B00010101F101F1414141F00101010F0000052
:1005C00000001F101010101F10101010F01000006D
:1005D00000FF101010101010101010FF100000007D
:1005E000FF140000FF00FF00001F10170000FC04B4
:1005F000F414141710171414F404F40000FF00F797
:1006000014141414141414F700F7141414171410F9
:10061000101F101F141414F4141010F010F0000028
:100620001F101F0000001F14000000FC140000F049
:1006300010F01010FF10FF141414FF141010101FEE
:1006400000000000F010FFFFFFFFFFF0F0F0F0F0FF
:10065000FFFFFF0000000000FFFF0F0F0F0F0F381C
:10066000444438447C2A2A3E147E02020606027E56
:10067000027E0263554941633844443C04407E2075
:100680001E2006027E020299A5E7A5991C2A492A86
:100690001C4C7201724C304A4D4D30304878483015
:1006A000BC625A463D3E494949007E0101017E2A0D
:1006B0002A2A2A2A44445F444440514A4440404440
:1006C0004A51400000FF0103E080FF000008086B72
:1006D0006B083612362436060F090F06000018186C
:1006E0000000001010003040FF0101001F01011E3A
:1006F00000191D1712003C3C3C3C00000000000F9C
:100700000180961180FFB103012C2DB203012C2D25
:10071000B306012C2D012C2DB40107C003A20284C5
:10072000C101C5C2020A00C3028A2AC4028AEEC5F8
:10073000010E20003601C83A0105022A0400020019
:10074000812B04000100A0022A040000007F2B047A
:100750000000009F04E010021C07123732292D29E7
:10076000252B3900010310E110031D07062E2C294B
:100770002D2E2E373F0000021013800A29806412AC
:100780000180321180FF3A81050AB1830006030A15
:10079000360108B6021502B40100C08202700AC117
:1007A0000105C2020102C5823C380AFC021115E0B3
:1007B0001009160920211B131917151E2B040502F9
:1007C0000EE1900B14081E221D181E1B1A242B0666
:1007D00006020F0A2A04000200812B040002008195
:1007E00013800A2980FFA408351611241FBECFEFFD
:1007F000D1E2DEBFCDBF00E00CBF13E0A0E0B2E06D
:10080000E0EBFDE800E00BBF02C007900D92A037BF
:10081000B107D9F716E0A0E7B3E001C01D92A238F6
:10082000B107E1F717E0CAEED7E004C02297FE0156
:100830000E94D246C63ED107C9F70E9453170C94B6
:10084000D8430C9400002F923F924F925F926F9288
:100850007F928F929F92AF92BF92CF92DF92EF9250
:10086000FF920F931F93CF93DF93EC016B01FA017B
:100870005901480106811781DB0116964D915C9163
:1008800017974A5F5F4F8C819D8197FD3DC12881FD
:100890003981820F931F813891050CF08AC0D501F0
:1008A0001C928E819F8184179507F4F4D6011296CD
:1008B000ED91FC9113972D913C9111976C817D8165
:1008C00088819981860F971FE817F9070CF481C07A
:1008D00082E6F50180832C843D844E845F84A88465
:1008E000B984CA84DB8410C028813981820F931FA8
:1008F000081719070CF4ACC02C843D844E845F8427
:10090000A884B984CA84DB84C601B501A601950117
:100910000E9493457B018C01C201B101A2019101AA
:100920000E9493459B01AC01C801B7010E94DC43C2
:100930000E94AC449B01889CC001899C900D989CAE
:10094000900D1124821793070CF4ADC0B4018827D1
:1009500077FD8095982F0E94DF443B014C01C60132
:10096000B501A40193010E948F4518160CF496C09E
:10097000C401B3012C853D854E855F850E944044AE
:10098000882324F46C867D868E869F86DF91CF91A6
:100990001F910F91FF90EF90DF90CF90BF90AF909D
:1009A0009F908F907F906F905F904F903F902F908F
:1009B000089580E890E0821B930B9D838C8388854B
:1009C0009985AA85BB85B05888879987AA87BB87F0
:1009D00066CF2E0F3F1F621773070CF079CF5F832E
:1009E0004E832C843D844E845F8457FA509457F88C
:1009F00050942C863D864E865F861A962D913C91AA
:100A00001B97C901880F991F820F931F9C01220F0A
:100A1000331F220F331F820F931F880F991F64E625
:100A200070E00E948046882777FD8095982F0E946D
:100A3000DF449B01AC01688579858A859B850E948E
:100A4000DC43688779878A879B875B016C015CCF71
:100A5000A281B381408151816C817D81CB01820F64
:100A6000931FA817B9070CF05BC04A0F5B1F6417F0
:100A700075070CF055C0021B130B1F830E832C84CB
:100A80003D844E845F8457FA509457F850942C86D6
:100A90003D864E865F8622853385B3CF688679860C
:100AA0008A869B8673CFB901882777FD8095982F1A
:100AB0000E94DF440E94FA457B018C01B401882723
:100AC00077FD8095982F0E94DF443B014C01A801DF
:100AD00097010E9444447B018C01C601B501A80125
:100AE00097010E9493455B016C01688779878A872B
:100AF0009B87C201B101A80197010E9493456C87B1
:100B00007D878E879F872BCF1D821C828885998544
:100B1000AA85BB85B05888879987AA87BB87BFCE2F
:100B200082E7D5018C93E8CEEF92FF920F931F934B
:100B3000CF93DF93EC0158814981852F942F9C013D
:100B400037FD4AC0C90195958795909581959F4F2E
:100B5000805C9F4F9D838C83252F342FC90197FD87
:100B60003EC095958795909581959F4F805B9F4F4F
:100B70009F838E8365E070E080E090E00E945819CA
:100B80009B01AC0162E070E080E090E0621B730BBF
:100B9000840B950B0E94DF44688779878A879B873F
:100BA00080E090E0A0E0B0E48C879D87AE87BF87AF
:100BB000088119816C817D814E815F81EA80FB8093
:100BC00080E893E098010E944A3BDF91CF911F910A
:100BD0000F91FF90EF9008952F5F3F4FB3CF019695
:100BE000C0CF6F927F928F929F92AF92BF92CF921F
:100BF000DF92EF92FF920F931F93DF93CF930F92A9
:100C0000CDB7DEB76C013B015A018901FC01E480DC
:100C1000F58086809780B701882777FD8095982F8B
:100C20000E94DF44F60120853185428553850E946C
:100C3000DC430E94AC44F60175836483B4018827C9
:100C400077FD8095982F0E94DF44F6012485358535
:100C5000468557850E94DC430E94AC44F6017783A9
:100C60006683C601B501A3019E012F5F3F4F0E941D
:100C70002304F60100811181E0E8AE2EE3E0BE2EF0
:100C8000C501B701A4019801EE24FF240E944A3B4C
:100C9000F601008111816481758146815781E2806E
:100CA000F380C50198010E944A3B89810F90CF9142
:100CB000DF911F910F91FF90EF90DF90CF90BF9049
:100CC000AF909F908F907F906F90089580E893E011
:100CD00060E070E00E940E2008950F931F93CF9361
:100CE000DF938B01EA01823609F49BC0823731F42D
:100CF000FB018081918101969183808380E893E05C
:100D000060E070E00E940E2080E893E068E170E00F
:100D100040E550E00E94F81F80E893E060E00E9408
:100D20000A202091FA023091FB02F8018081918122
:100D3000821793070CF07BC08881998182179307F3
:100D4000ACF180E893E06FEF7FEF0E94042080E831
:100D500093E060E072E00E94941780E893E062E222
:100D600070E04EE550E00E94F81F80E893E06CE1EF
:100D700072E00E94941780E893E060E078EF0E94B0
:100D8000042080E893E064E272E00E9494171982E4
:100D90001882F8011182108289E00E942C120197BA
:100DA000D9F3DF91CF911F910F91089580E893E0DF
:100DB00066E370E040E450E00E94F81F80E893E0B2
:100DC00060E078EF0E9404206881798180E893E0F8
:100DD0004AE050E00E94451980E893E06FEF7FEF12
:100DE0000E94042080E893E069E272E00E94941778
:100DF00080E893E06FE170E00E940420F8016081D8
:100E0000718180E893E04AE050E00E94451989E052
:100E10000E942C120197D9F3DF91CF911F910F916E
:100E200008958881998101969983888367CF80E8A6
:100E300093E06FEF7FEF0E94042080E893E060E092
:100E400072E00E94941780E893E062E270E04EE561
:100E500050E00E94F81F80E893E06FE072E00E948B
:100E6000941780E893E06FE170E00E94042080E82E
:100E700093E068E172E00E94941719821882F801E9
:100E80001182108289E00E942C120197D9F3DF9120
:100E9000CF911F910F9108950F931F9300E813E0D6
:100EA000C80160E070E00E940E20C80164E00E946A
:100EB000FE1FC80166E370E046E450E00E94F81FA0
:100EC000C80165E070E04AE050E00E94451968EE14
:100ED00073E080E090E00E946910C80160E070E07B
:100EE0000E940E20C80164E00E94FE1FC80166E354
:100EF00070E046E450E00E94F81FC80164E070E032
:100F00004AE050E00E94451968EE73E080E090E00E
:100F10000E946910C80160E070E00E940E20C801C4
:100F200064E00E94FE1FC80166E370E046E450E002
:100F30000E94F81FC80163E070E04AE050E00E94A0
:100F4000451968EE73E080E090E00E946910C801E6
:100F500060E070E00E940E20C80164E00E94FE1F65
:100F6000C80166E370E046E450E00E94F81FC80143
:100F700062E070E04AE050E00E94451968EE73E0DC
:100F800080E090E00E946910C80160E070E00E947B
:100F90000E20C80164E00E94FE1FC80166E370E0F5
:100FA00046E450E00E94F81FC80161E070E04AE0AA
:100FB00050E00E94451968EE73E080E090E00E94E6
:100FC0006910C80161E00E94FE1F1F910F910895F2
:100FD000EF92FF920F931F93CF93DF93EC018B015E
:100FE0007A0180E893E060E070E00E940E20488182
:100FF0005981CA019C0197FD27C0C9019595879524
:10100000909581959F4F805C9F4F9B838A83CA01F7
:1010100057FD1DC095958795909581959F4F805C54
:101020009F4FF80193838283CE010E942908C80153
:101030000E942908C7010E949405DF91CF911F915A
:101040000F91FF90EF9008952F5F3F4FD6CF0196FD
:10105000E1CFEF92FF920F931F93FC0162817381A6
:101060004681578120813181E084F18480E893E0DA
:1010700006E010E00E944A3B1F910F91FF90EF9015
:101080000895CF92DF92EF92FF920F931F93CF9329
:10109000DF93EC016B01E091FE02F091FF022881E9
:1010A00039817B876A876A817B81A601460F571F3A
:1010B0008091FC029091FD028417950794F4CF0172
:1010C000821B930B4817590764F4C114D10489F4A7
:1010D000DF91CF911F910F91FF90EF90DF90CF9014
:1010E00008956C01C61AD70A1B861A86C114D1044A
:1010F00079F36C0D7D1D7B836A834E815F81E8846B
:10110000F98480E893E006E010E00E944A3BD7FCB7
:1011100010C06A817B816C197D0996014E815F81C7
:1011200080E893E006E010E0EE24FF240E944A3BB2
:10113000CFCF688179818A819B81680F791F2227AF
:1011400033272C193D09EACF80E893E066E047E0B9
:1011500028E00E94292008952F923F924F925F929B
:101160006F927F928F929F92AF92BF92CF92DF92B7
:10117000EF92FF920F931F93DF93CF93CDB7DEB71C
:1011800066970FB6F894DEBF0FBECDBF86E096E03F
:101190006DE272E00E94A81783E696E063E40E9485
:1011A000001683E696E00E94EE150E9434107B0143
:1011B0008C010E9434106E197F09800B910B685EC0
:1011C00073408040904098F483E696E00E94A31517
:1011D0008134910509F183E696E00E94A3158F5FA3
:1011E0009F4F39F383E696E00E94C415E2CF11E0E9
:1011F00004C083E696E00E94C41583E696E00E9450
:101200009215892BB1F7112369F086E096E06BE324
:1012100072E00E94A817BACF83E696E00E94C41538
:1012200010E0EBCF86E096E064E472E00E94A8173D
:1012300004C083E696E00E94C41583E696E00E940F
:101240009215892BB1F764EF71E080E090E00E9485
:10125000691083E696E061E40E94001664E670E09F
:1012600080E090E00E9469101B861C861D861E8609
:101270001F82188619861A861A8219820E944210C5
:101280006B837C838D839E8383E696E063E50E9477
:10129000001683E696E00E94EE1583E696E00E9433
:1012A00092150897D4F30E9442102B013C0183E66B
:1012B00096E00E94C4155C0183E696E00E94C41586
:1012C000182F83E696E00E94C415982E83E696E0D8
:1012D0000E94C415188B1F866F8578897B010027B3
:1012E000F7FC0095102F99249A8A198AE989FA89BE
:1012F000CF01AA2797FDA095BA2FE82AF92A0A2B31
:101300001B2BCC24B7FCC094DC2CEA28FB280C292E
:101310001D291C8A1B8AAB88BC88C501AA2797FD9A
:10132000A095BA2FE82AF92A0A2B1B2B83E696E010
:101330000E94C4155C0183E696E00E94C415982EB5
:1013400083E696E00E94C415882E83E696E00E940C
:10135000C415392C22249101442737FD4095542F80
:10136000982C99248824C401AA2797FDA095BA2F08
:10137000282B392B4A2B5B2BCC24B7FCC094DC2CBC
:101380002A293B294C295D291E8A1D8ACD88DE88A1
:10139000C601AA2797FDA095BA2F282B392B4A2BD7
:1013A0005B2B6B857C858D859E85AB80BC80CD80DD
:1013B000DE806A197B098C099D09640D751D861DE7
:1013C000971D6E0D7F1D801F911F621B730B840B79
:1013D000950B6B877C878D879E87EA18FB080C0925
:1013E0001D09E418F50806091709E20EF31E041F8B
:1013F000151F16950795F794E7946F817885898571
:101400009A856E0D7F1D801F911F6F837887898756
:101410009A8789819A8101969A838983409709F0F6
:101420002DCF6B857C858D859E8520E130E040E069
:1014300050E00E94B546922E832E442E352E66240F
:10144000772483E696E00E94C41583359105C9F799
:101450000E9442107B018C010E9442105B016C01D2
:1014600083E696E06E2D0E9400165527412F302FFF
:101470002F2D83E696E0622F0E94001698014427E4
:10148000552783E696E0622F0E940016E12EFF2486
:101490000027112783E696E06E2D0E94001683E652
:1014A00096E06A2D0E94001655274D2D3C2D2B2DC0
:1014B00083E696E0622F0E94001696014427552786
:1014C00083E696E0622F0E940016AD2CBB24CC244C
:1014D000DD2483E696E06A2D0E94001683E696E0FE
:1014E0000E94EE150894611C711C90E1691671044C
:1014F00009F0A7CF86E096E066E572E00E949417B7
:1015000086E096E0492D582D642D732D2AE030E0B9
:101510000E94E01786E096E061E772E00E9494176F
:101520006F81788589859A8520E130E040E050E040
:101530000E94B54686E096E0BA01A9012AE030E0B3
:101540000E941C1983E696E00E9492150597D4F339
:1015500083E696E00E94C41583E696E00E94C415D7
:101560007C0183E696E00E94C415D82E83E696E0BF
:101570000E94C415C82E83E696E00E94C4159D2DD6
:1015800080E0AA2797FDA095BA2F3C2D332720E0B5
:10159000442737FD4095542F822B932BA42BB52B3A
:1015A0000027F7FC0095102F8E299F29A02BB12B27
:1015B0000E94801983E696E00E94C4158734910545
:1015C000C9F7692D782D842D932D20E338EF4FEF47
:1015D0005FEF0E94B5462C593F4F4F4F5F4FCA01F6
:1015E000B9010E94691066960FB6F894DEBF0FBE6F
:1015F000CDBFCF91DF911F910F91FF90EF90DF90C2
:10160000CF90BF90AF909F908F907F906F905F90A2
:101610004F903F902F900895AF92BF92CF92DF925C
:10162000EF92FF920F931F93DF93CF9300D000D0E0
:10163000CDB7DEB70E943410209178033091790342
:1016400040917A0350917B03621B730B840B950BC3
:1016500060937C0370937D0380937E0390937F035C
:1016600028E833E140E050E00E94B546611571057D
:101670008105910549F48091020390910303059639
:101680009093030380930203609100037091010320
:10169000882777FD8095982F0E9469108091040318
:1016A00090910503181619060CF041C06E010894BC
:1016B000C11CD11C760100E010E0C8018295929512
:1016C000907F9827807F9827209102033091030311
:1016D00084559C4F66E073E042E153E00E94F105BF
:1016E000992787FD9095F701819391937F010F5F73
:1016F0001F4F209104033091050302171307ECF2EA
:1017000012161306A4F400E010E041E0E42EF12CE0
:10171000F60180819181009709F0A5C00F5F1F4FEE
:1017200082E090E0C80ED91E021713078CF30091D7
:1017300070031091710381E00E94B70FF801E81B5C
:10174000F90BCF0164E670E00E9480465B017B01EB
:101750000027F7FC0095102F83E696E06E2D0E947F
:1017600000165527412F302F2F2D83E696E0622F4C
:101770000E94001698014427552783E696E0622FC1
:101780000E940016E12EFF240027112783E696E031
:101790006E2D0E94001683E696E00E949215049733
:1017A000D4F383E696E00E94C4157C0183E696E0BC
:1017B0000E94C415D82E83E696E00E94C415C82E58
:1017C00083E696E00E94C4153D2D20E0442737FDB6
:1017D0004095542F9C2D992780E0AA2797FDA0952E
:1017E000BA2F282B392B4A2B5B2B0027F7FC0095AF
:1017F000102F2E293F29402B512B30937303209318
:1018000072038091DC03882309F44CC086E093E0E6
:10181000B5010E944108609172037091730382E1E7
:1018200093E00E94410882E193E00E94290886E04B
:1018300093E00E94290889E00E942C12892B11F460
:101840000E94660626960FB6F894DEBF0FBECDBF87
:10185000CF91DF911F910F91FF90EF90DF90CF908C
:10186000BF90AF90089564E773E046E753E00E94AD
:101870006D0682E193E066E073E04CEA53E00E947B
:10188000E8070E9434106093780370937903809383
:101890007A0390937B03F0920503E092040321E026
:1018A00030E03CCF82E193E0B5010E9441086091B5
:1018B00072037091730386E093E00E944108B3CFF6
:1018C0002F923F924F925F926F927F928F929F9250
:1018D000AF92BF92CF92DF92EF92FF920F931F933E
:1018E000DF93CF93CDB7DEB766970FB6F894DEBF20
:1018F0000FBECDBFEE24FF248701AA24AA2071F1D8
:1019000083E696E00E94A3158134910509F460C036
:1019100083E696E00E94A3158F5F9F4F21F083E638
:1019200096E00E94C4150E9434106E197F09800B46
:10193000910B695E73408040904000F383E696E02F
:101940000E949215892B51F083E696E00E94C415FF
:1019500083E696E00E949215892BB1F783E696E024
:101960000E94A3158334910591F083E696E00E94CE
:10197000A3158F5F9F4F91F383E696E00E94C415F5
:1019800083E696E00E94A3158334910571F786E003
:1019900096E00E94C41586E096E06CE772E00E9433
:1019A000A81783E696E061E40E94001683E696E0BD
:1019B0000E94EE150E9434107B018C01AA24A3948E
:1019C00083E696E00E94A3158134910509F0A0CF2B
:1019D00086E096E062E972E00E94A81783E696E04E
:1019E0000E94C41504C083E696E00E94C41583E6F5
:1019F00096E00E949215892BB1F764EF71E080E0C8
:101A000090E00E94691086E096E061EA72E00E9430
:101A1000A8178824992483E696E00E94C41583358C
:101A20009105C9F70E9442107B018C010E9442106F
:101A30005B016C0183E696E06E2D0E94001655272F
:101A4000412F302F2F2D83E696E0622F0E94001643
:101A500098014427552783E696E0622F0E940016DE
:101A6000E12EFF240027112783E696E06E2D0E94C9
:101A7000001683E696E06A2D0E94001655274D2D2C
:101A80003C2D2B2D83E696E0622F0E9400169601D6
:101A90004427552783E696E0622F0E940016AD2C5E
:101AA000BB24CC24DD2483E696E06A2D0E94001638
:101AB00083E696E00E94EE150894811C911CB0E12B
:101AC0008B16910409F0A7CF1B861C861D861E86E7
:101AD0001F82188619861A861A8219820E9442105D
:101AE0006B837C838D839E8383E696E063E50E940F
:101AF000001683E696E00E94EE1583E696E00E94CB
:101B000092150897D4F30E9442102B013C0183E602
:101B100096E00E94C4155C0183E696E00E94C4151D
:101B2000182F83E696E00E94C415982E83E696E06F
:101B30000E94C415188B1F86EF85F8897F01002746
:101B4000F7FC0095102F99249A8A198AC988DA8897
:101B5000C601AA2797FDA095BA2FE82AF92A0A2BD1
:101B60001B2BCC24B7FCC094DC2CEA28FB280C29C6
:101B70001D291C8A1B8A2B893C89C901AA2797FD2C
:101B8000A095BA2FE82AF92A0A2B1B2B83E696E0A8
:101B90000E94C4155C0183E696E00E94C415982E4D
:101BA00083E696E00E94C415882E83E696E00E94A4
:101BB000C415392C22249101442737FD4095542F18
:101BC000982C99248824C401AA2797FDA095BA2FA0
:101BD000282B392B4A2B5B2BCC24B7FCC094DC2C54
:101BE0002A293B294C295D291E8A1D8A6D897E89F7
:101BF000CB01AA2797FDA095BA2F282B392B4A2B6A
:101C00005B2B8B859C85AD85BE85AB80BC80CD80F4
:101C1000DE808A199B09AC09BD09840D951DA61D9E
:101C2000B71D8E0D9F1DA01FB11F821B930BA40B10
:101C3000B50B8B879C87AD87BE87EA18FB080C091C
:101C40001D09E418F50806091709E20EF31E041F22
:101C5000151F16950795F794E7946F817885898508
:101C60009A856E0D7F1D801F911F6F8378878987EE
:101C70009A8789819A8101969A838983409709F08E
:101C80002DCF86E096E066E572E00E9494176B85A2
:101C90007C858D859E8520E130E040E050E00E940B
:101CA000B54686E096E0BA01A9012AE030E00E943C
:101CB000E01786E096E061E772E00E9494176F817A
:101CC000788589859A8520E130E040E050E00E94E7
:101CD000B54686E096E0BA01A9012AE030E00E940C
:101CE0001C19EE24FF248701882499248FE00E9488
:101CF000B70F082C02C0880F991F0A94E2F7AA2791
:101D000097FDA095BA2FE82AF92A0A2B1B2B88EEFB
:101D100093E00E94D3100894811C911C90E28916D4
:101D2000910421F7C7010E94801983E696E062E5DD
:101D30000E94001683E696E06E2D0E94001655273D
:101D4000412F302F2F2D83E696E0622F0E94001640
:101D500098014427552783E696E0622F0E940016DB
:101D6000212F33274427552783E696E0622F0E94D0
:101D7000001683E696E00E94EE1568EC70E080E0C5
:101D800090E00E94691083E696E067E40E940016E6
:101D900083E696E00E94EE1564E670E080E090E055
:101DA0000E94691066960FB6F894DEBF0FBECDBFD5
:101DB000CF91DF911F910F91FF90EF90DF90CF9027
:101DC000BF90AF909F908F907F906F905F904F905B
:101DD0003F902F9008958DE062E00E943F1189E0CE
:101DE00062E00E943F1189E061E00E94821186E07A
:101DF00096E040E855E260E070E00E94041583E65A
:101E000096E040E452E46FE070E00E94041580E840
:101E100093E061E00E948B4180E893E060E070E035
:101E20000E940E2080E893E062E270E040E550E01E
:101E30000E94F81F80E893E06EEA72E00E94941717
:101E40001092DC038DE00E942C121092DC03892B8F
:101E500019F481E08093DC0380E893E06DE170E0A9
:101E600044E650E00E94F81F8091DC03882309F4C7
:101E700064C080E893E060E078EF0E94042080E88E
:101E800093E069EB72E00E9494178091DC03882351
:101E900009F064C086E096E062ED72E00E9494175B
:101EA0000E94600C86E096E06AEE72E00E94941751
:101EB0000E944C07ACEAB3E0EEE1F3E080E1019070
:101EC0000D928150E1F7ACEBB3E0EEE1F3E080E19D
:101ED00001900D928150E1F7ACECB3E0EEE1F3E05C
:101EE00080E101900D928150E1F781E00E94B70FEF
:101EF000909371038093700310927703109276038E
:101F000010927503109274030E943410609378034A
:101F10007093790380937A0390937B0381E090E040
:101F2000909305038093040382E193E066E073E0FD
:101F30004CEA53E00E94E807089580E893E06FE1DF
:101F400070E00E94042080E893E066EC72E00E945A
:101F500094178091DC03882309F49CCF86E096E0F7
:101F60006EED72E00E9494170E94AC089BCF382F50
:101F7000863308F0365320917B00832F8695869513
:101F8000869590E081709070880F991F880F991F37
:101F9000880F991F277F282B20937B003770809113
:101FA0002E038295880F880F807C832B80937C0082
:101FB00080917A00806480937A0080917A0086FD17
:101FC000FCCF2091780040917900942F80E030E0A0
:101FD000282B392BC90108951F920F920FB60F922B
:101FE00011242F933F938F939F93AF93BF9380912F
:101FF000E1039091E203A091E303B091E4033091F7
:10200000E5030196A11DB11D232F2D5F2D3720F073
:102010002D570196A11DB11D2093E5038093E10387
:102020009093E203A093E303B093E4038091DD0374
:102030009091DE03A091DF03B091E0030196A11D12
:10204000B11D8093DD039093DE03A093DF03B09373
:10205000E003BF91AF919F918F913F912F910F908E
:102060000FBE0F901F9018958FB7F8942091E10341
:102070003091E2034091E3035091E4038FBFB90133
:10208000CA0108959FB7F8942091DD033091DE03D3
:102090004091DF035091E00386B5A89B06C08F3FB7
:1020A00021F02F5F3F4F4F4F5F4F9FBF542F432F64
:1020B000322F2227280F311D411D511D220F331FA2
:1020C000441F551F220F331F441F551FB901CA015A
:1020D0000895EF92FF920F931F937B018C012FB70E
:1020E000F8948091DD039091DE03A091DF03B0911D
:1020F000E00336B5A89B05C03F3F19F00196A11D2E
:10210000B11D2FBFE114F1040105110509F446C00A
:10211000BA2FA92F982F8827830F911DA11DB11DBC
:10212000880F991FAA1FBB1F880F991FAA1FBB1FCB
:10213000AC013FB7F8948091DD039091DE03A0914C
:10214000DF03B091E00326B5A89B05C02F3F19F02F
:102150000196A11DB11D3FBFBA2FA92F982F882727
:10216000820F911DA11DB11D880F991FAA1FBB1FB2
:10217000880F991FAA1FBB1F841B950B885E934075
:10218000C0F20894E108F10801091109E114F10411
:102190000105110519F048515C4FCBCF1F910F91EC
:1021A000FF90EF900895019739F0880F991F880FDD
:1021B000991F02970197F1F70895789484B582608A
:1021C00084BD84B5816084BD85B5826085BD85B5DB
:1021D000816085BDEEE6F0E0808181608083E1E88A
:1021E000F0E01082808182608083808181608083C2
:1021F000E0E8F0E0808181608083E1EBF0E08081C5
:1022000084608083E0EBF0E0808181608083E1E99D
:10221000F0E0808182608083808181608083E0E95A
:10222000F0E0808181608083E1EAF0E0808182607B
:102230008083808181608083E0EAF0E0808181603A
:102240008083E1E2F1E0808182608083808181602F
:102250008083E0E2F1E0808181608083EAE7F0E062
:1022600080818460808380818260808380818160BE
:1022700080838081806880831092C1000895CF930D
:10228000DF93482F50E0CA0188589E4FFC013491DB
:102290004E5C5E4FFA0184918823B9F090E0880F7C
:1022A000991FFC01EC51FF4FA591B491FC01E25044
:1022B000FF4FC591D491662359F06230B9F09FB7B2
:1022C000F8948C91832B8C939FBFDF91CF910895CD
:1022D0002FB7F8948C91932F909589238C938881B4
:1022E000892388832FBFDF91CF9108952FB7F8946A
:1022F0008C91932F909589238C938881832B88834D
:102300002FBFE3CF482F50E0CA0182549E4FFC01FB
:102310002491CA0188589E4FFC0134914E5C5E4F57
:10232000FA019491992399F02223B9F4E92FF0E06E
:10233000EE0FFF1FE250FF4FA591B4919FB7F894A5
:10234000662331F48C91309583238C939FBF08953D
:102350008C91832B8C939FBFFACF293009F464C0F2
:102360002A3080F42430E9F02530A8F5223009F431
:102370003FC0233008F05EC02130C1F684B58F77AE
:1023800084BDD4CF2D3099F02E30B8F42B3009F421
:1023900045C02C30E8F18091A0008F7D8093A00093
:1023A000C5CF809180008F7D80938000BFCF8091CA
:1023B000A000877F8093A000B9CF203109F446C0E8
:1023C0002131F1F12F3009F0B1CF809120018F77C9
:1023D00080932001ABCF2730A9F0283068F4263055
:1023E00009F0A4CF8091B0008F778093B0009ECF8A
:1023F00084B58F7D84BD9ACF809190008F77809334
:10240000900094CF8091B0008F7D8093B0008ECFEC
:1024100080919000877F8093900088CF8091A0006A
:102420008F778093A00082CF809190008F7D8093E2
:1024300090007CCF809180008F778093800076CF52
:1024400080912001877F8093200170CF80912001AF
:102450008F7D809320016ACF682F70E0CB0182547A
:102460009E4FFC012491CB0188589E4FFC01449162
:102470006E5C7E4FFB0194919923B1F02223C1F44D
:10248000892F90E0880F991F885E9E4FFC01A591CF
:10249000B4918C9120E030E0842311F4C9010895B7
:1024A00021E030E0C901089520E030E0C90108953D
:1024B000293009F464C02A3080F42430E9F0253052
:1024C000A8F5223009F43FC0233008F05EC0213067
:1024D000B9F684B58F7784BDD3CF2D3099F02E30E7
:1024E000B8F42B3009F445C02C30E8F18091A000FD
:1024F0008F7D8093A000C4CF809180008F7D8093DA
:102500008000BECF8091A000877F8093A000B8CFCD
:10251000203109F446C02131F1F12F3009F0B0CF5C
:10252000809120018F7780932001AACF2730A9F0D6
:10253000283068F4263009F0A3CF8091B0008F775F
:102540008093B0009DCF84B58F7D84BD99CF80915D
:1025500090008F778093900093CF8091B0008F7D13
:102560008093B0008DCF80919000877F8093900002
:1025700087CF8091A0008F778093A00081CF80913A
:1025800090008F7D809390007BCF809180008F772B
:102590008093800075CF80912001877F80932001F8
:1025A0006FCF809120018F7D8093200169CF0895A6
:1025B0001F920F920FB60F920BB60F9211242F930A
:1025C0003F934F938F939F93EF93FF934091C60058
:1025D00020912604309127042F5F3F4F2F733070D6
:1025E00080912804909129042817390759F0E09127
:1025F0002604F0912704EA51FC4F408330932704CE
:1026000020932604FF91EF919F918F914F913F91DD
:102610002F910F900BBE0F900FBE0F901F9018952B
:1026200008951F920F920FB60F920BB60F921124BE
:102630002F933F934F938F939F93EF93FF934091EB
:10264000CE002091AE043091AF042F5F3F4F2F7327
:1026500030708091B0049091B1042817390759F077
:10266000E091AE04F091AF04E259FB4F4083309308
:10267000AF042093AE04FF91EF919F918F914F9102
:102680003F912F910F900BBE0F900FBE0F901F9098
:10269000189508951F920F920FB60F920BB60F92D6
:1026A00011242F933F934F938F939F93EF93FF9317
:1026B0004091D60020913605309137052F5F3F4F6E
:1026C0002F7330708091380590913905281739079C
:1026D00059F0E0913605F0913705EA50FB4F408301
:1026E0003093370520933605FF91EF919F918F919D
:1026F0004F913F912F910F900BBE0F900FBE0F90F7
:102700001F90189508951F920F920FB60F920BB657
:102710000F9211242F933F934F938F939F93EF9397
:10272000FF93409136012091BE053091BF052F5F88
:102730003F4F2F7330708091C0059091C1052817CD
:10274000390759F0E091BE05F091BF05E258FA4F04
:1027500040833093BF052093BE05FF91EF919F9179
:102760008F914F913F912F910F900BBE0F900FBE05
:102770000F901F901895E0911206F0911306E05CFF
:10278000FF4F8191919120813181821B930B8F7337
:102790009070892BD1F5E0913106F0913206E05C22
:1027A000FF4F8191919120813181821B930B8F7317
:1027B0009070892B39F5E0915006F0915106E05C5C
:1027C000FF4F8191919120813181821B930B8F73F7
:1027D0009070892BA1F4E0916F06F0917006E05C97
:1027E000FF4F8191919120813181821B930B8F73D7
:1027F0009070892B09F408950E94821308950E9415
:102800004913E9CF0E941013D6CF0E94D712C3CF2D
:102810001F920F920FB60F920BB60F9211242F93A7
:102820003F938F939F93EF93FF9320916A0430918E
:102830006B0480916C0490916D042817390709F19D
:10284000E0916C04F0916D04E65DFB4F2081809176
:102850006C0490916D0401968F73907090936D0449
:1028600080936C042093C600FF91EF919F918F910C
:102870003F912F910F900BBE0F900FBE0F901F90A6
:1028800018958091C1008F7D8093C100EDCF1F927C
:102890000F920FB60F920BB60F9211242F933F9306
:1028A0008F939F93EF93FF932091F2043091F30461
:1028B0008091F4049091F5042817390709F1E0910B
:1028C000F404F091F504EE54FB4F20818091F40460
:1028D0009091F50401968F7390709093F504809316
:1028E000F4042093CE00FF91EF919F918F913F913F
:1028F0002F910F900BBE0F900FBE0F901F90189549
:102900008091C9008F7D8093C900EDCF1F920F92F7
:102910000FB60F920BB60F9211242F933F938F9304
:102920009F93EF93FF9320917A0530917B058091DF
:102930007C0590917D052817390709F1E0917C0508
:10294000F0917D05E65CFA4F208180917C059091A5
:102950007D0501968F73907090937D0580937C0523
:102960002093D600FF91EF919F918F913F912F91EE
:102970000F900BBE0F900FBE0F901F901895809177
:10298000D1008F7D8093D100EDCF1F920F920FB6B3
:102990000F920BB60F9211242F933F938F939F9317
:1029A000EF93FF9320910206309103068091040675
:1029B000909105062817390709F1E0910406F09176
:1029C0000506EE53FA4F208180910406909105068A
:1029D00001968F7390709093050680930406209360
:1029E0003601FF91EF919F918F913F912F910F9021
:1029F0000BBE0F900FBE0F901F9018958091310164
:102A00008F7D80933101EDCFDF92EF92FF920F9394
:102A10001F93CF93DF93EC017A018B01DD244030CB
:102A200081EE580780E0680780E0780721F1DD2417
:102A3000D394EC89FD8981E090E00E8C02C0880F70
:102A4000991F0A94E2F7808360E079E08DE390E0DB
:102A5000A80197010E9493462150304040405040C9
:102A6000569547953795279580E120303807D0F067
:102A7000DD20C1F0DD24EC89FD89108260E874E876
:102A80008EE190E0A80197010E94934621503040CA
:102A900040405040569547953795279580E1203026
:102AA000380730F7E889F9893083EA89FB89208380
:102AB000EE89FF89408121E030E0C9010A8C02C023
:102AC000880F991F0A94E2F7482B4083EE89FF890B
:102AD0004081C9010B8C02C0880F991F0A94E2F74C
:102AE000482B4083EE89FF894081C9010C8C02C0CC
:102AF000880F991F0A94E2F7482B4083EE89FF89DB
:102B000080810D8C02C0220F331F0A94E2F72095BA
:102B100028232083DF91CF911F910F91FF90EF9099
:102B2000DF900895DC011C96ED91FC911D97E05C0F
:102B3000FF4F2191319180819181281B390B2F7397
:102B40003070C9010895DC011C96ED91FC911D9730
:102B5000E05CFF4F20813181E054F040DF01AE5B4B
:102B6000BF4F8D919C9111972817390749F08D918E
:102B70009C91E80FF91F8081282F30E0C90108954A
:102B80002FEF3FEFC9010895DC011C96ED91FC91F8
:102B90001D97E05CFF4F20813181E054F040DF0160
:102BA000AE5BBF4F8D919C9111972817390791F01B
:102BB0008D919C911197E80FF91F20818D919C9127
:102BC000119701968F73907011969C938E9330E0BD
:102BD000C90108952FEF3FEFC9010895FC018685D3
:102BE0009785DC01A05CBF4FFC01EE5BFF4F2D9190
:102BF0003C9111978081918128173907C1F7089579
:102C0000CF93DF93EC01AE85BF85AD01405C5F4F94
:102C1000FA01208131812F5F3F4F2F733070FD010A
:102C2000EE5BFF4F8081918182179307D9F3FA0100
:102C300080819181A80FB91F6C93EE85FF85E05CC0
:102C4000FF4F31832083EE89FF89208181E090E06E
:102C50000D8C02C0880F991F0A94E2F7282B20835D
:102C600081E090E0DF91CF9108951F9310920906C3
:102C70001092080628EE33E040E050E020930A0668
:102C800030930B0640930C0650930D0663E373E0FC
:102C9000709307066093060686EE93E09093130602
:102CA000809312068AE294E09093150680931406AE
:102CB00085EC90E0909317068093160684EC90E0E4
:102CC000909319068093180680EC90E090931B0671
:102CD00080931A0681EC90E090931D0680931C0669
:102CE00086EC90E090931F0680931E0614E01093EC
:102CF0002006B3E0B0932106A7E0A0932206F5E0FA
:102D0000F0932306E1E0E093240610922806109247
:102D100027062093290630932A0640932B065093CA
:102D20002C0670932606609325068EE694E0909319
:102D300032068093310682EB94E0909334068093C0
:102D400033068DEC90E090933606809335068CEC3C
:102D500090E0909338068093370688EC90E090934B
:102D60003A068093390689EC90E090933C06809374
:102D70003B068EEC90E090933E0680933D061093C8
:102D80003F06B0934006A0934106F0934206E093BD
:102D90004306109247061092460620934806309349
:102DA000490640934A0650934B067093450660933C
:102DB000440686EF94E090935106809350068AE390
:102DC00095E0909353068093520685ED90E09093A2
:102DD00055068093540684ED90E0909357068093B7
:102DE000560680ED90E0909359068093580681ED49
:102DF00090E090935B0680935A0686ED90E0909366
:102E00005D0680935C0610935E06B0935F06A09308
:102E10006006F0936106E0936206109266061092D7
:102E200065062093670630936806409369065093C1
:102E30006A0670936406609363068EE795E090934C
:102E4000700680936F0682EC95E0909372068093F3
:102E5000710685E391E0909374068093730684E392
:102E600091E0909376068093750680E391E09093CD
:102E700078068093770681E391E090937A068093B9
:102E8000790686E391E090937C0680937B0610930D
:102E90007D06B0937E06A0937F06F0938006E093B4
:102EA00081061F9108950E94DD100E94EB0E0E9482
:102EB0000C0B8BEB93E1892B29F00E94BB130E9432
:102EC0000C0BFBCF0E940C0B0E940C0BFBCF089548
:102ED000CF92DF92EF92FF920F931F93CF93DF93E6
:102EE0007C016B01EA0141155105D9F000E010E0C9
:102EF000D6016D916D01D701ED91FC910190F081AA
:102F0000E02DC7011995080F191F219789F7C801EE
:102F1000DF91CF911F910F91FF90EF90DF90CF90B5
:102F2000089500E010E0F3CFCF93DF93DB010D9025
:102F30000020E9F71197A61BB70BEC01E881F98196
:102F40000280F381E02DAD011995DF91CF910895B5
:102F5000CF92DF92EF92FF920F931F93CF93DF9365
:102F60007C01DB010D900020E9F71197A61BB70B40
:102F7000EC01E881F9810280F381E02DAD01199522
:102F80006C01E881F9810190F081E02DC7016DE0CD
:102F900019958C01E881F9810190F081E02DC7013C
:102FA0006AE019950C0D1D1D080F191FC801DF914E
:102FB000CF911F910F91FF90EF90DF90CF900895E8
:102FC0004F925F926F927F928F929F92AF92BF9239
:102FD000CF92DF92EF92FF920F931F93DF93CF93E5
:102FE000CDB7DEB7A1970FB6F894DEBF0FBECDBF49
:102FF0002C017A018B012115310509F49BC02A307F
:103000003105B9F1223008F4B3C0A22EBB24CC2480
:10301000DD247E2C7F2DC80119A241E2842E912C43
:103020008C0E9D1E0CC0822FD4018C937E2C7F2D84
:10303000C801E114F1040105110509F450C0672D20
:10304000A60195010E94934679018A01C801B70142
:10305000A60195010E944D46872D861B0894810884
:103060009108282F205D982F995C8A30E4F2892FEF
:10307000DBCF77FD83C0B42E7F2DC80119A261E29A
:10308000C62ED12CCC0EDD1E0CC0822FD6018C9307
:10309000BE2C7F2DC801E114F1040105110509F4CE
:1030A00053C06B2D2AE030E040E050E00E94934690
:1030B00079018A01C801B7012AE030E040E050E020
:1030C0000E944D468B2D861B0894C108D108282FDD
:1030D000205D982F995C8A30C4F2892FD7CFD40114
:1030E0000D900020E9F71197A819B909F201808124
:1030F0009181FC0122813381C201B401AD01F9014A
:1031000019959C01C901A1960FB6F894DEBF0FBEB8
:10311000CDBFCF91DF911F910F91FF90EF90DF9086
:10312000CF90BF90AF909F908F907F906F905F9067
:103130004F900895DC01ED91FC910190F081E02D1C
:10314000642F19959C01DECFD6010D900020E9F780
:103150001197AC19BD09F20180819181FC01228196
:103160003381C201B601AD01F90119959C01CACFA5
:103170005AE0A52EB12CC12CD12C4BCFDC01ED9106
:10318000FC910190F081E02D6DE219953C01AA249B
:10319000BB246501AE18BF08C00AD10A19A271E2AA
:1031A000872E912C8C0E9D1E0EC0822FF4018083E1
:1031B000812F902FAF2DBE2D5C016D01A114B104A4
:1031C000C104D10419F1C601B5012AE030E040E0A4
:1031D00050E00E949346122F032FF42EE52E622F0B
:1031E000732F842F952F2AE030E040E050E00E94BA
:1031F0004D468A2D861B089481089108282F205D52
:10320000982F995C8A308CF2892FD0CFD4010D9001
:103210000020E9F71197A819B909F201808191817D
:10322000FC0122813381C201B401AD01F90119957C
:103230009C01260D371D66CFCF92DF92EF92FF9251
:103240000F931F937C010E94E0176C01D701ED9151
:10325000FC910190F081E02DC7016DE019958C0182
:10326000D701ED91FC910190F081E02DC7016AE05A
:1032700019950C0D1D1D080F191FC8011F910F91E5
:10328000FF90EF90DF90CF900895EF92FF920F9311
:103290001F937B019A010027F7FC0095102FB801BE
:1032A000A7010E94E0171F910F91FF90EF900895E2
:1032B000EF92FF920F931F937B018C0161157105B3
:1032C0008105910559F420E030E040E050E0B9017B
:1032D000CA011F910F91FF90EF9008950E94CA4379
:1032E000A80197010E94B546AC01CB01DA019C010F
:1032F000AD01B901CA011F910F91FF90EF900895A0
:10330000009709F40895BC0180E090E00E94CF434B
:103310000895FC011382128283E493E091838083F9
:103320007583648357834683718760875387428799
:10333000158A158614861786168621E0248B8FEF52
:103340009FEF938B828B918B808B268B08952F928E
:103350003F924F925F926F927F928F929F92AF9225
:10336000BF92CF92DF92EF92FF920F931F93CF9372
:10337000DF934C01EB016A0159011701A8014C19B7
:103380005D097A0157FD88C035016C1A7D0AB301C9
:1033900077FC7DC0E0E0F0E06E157F0554F4E1E0DD
:1033A000F0E0C6016E01EC01C80185015C013A0143
:1033B0007B01AC16BD0674F43E016A187B087601E9
:1033C000E01AF10AF7FC6DC0C5015E01EC01C8010D
:1033D00086016C01C016D1060CF455C044244A94F1
:1033E000542CAC16BD0624F1C30177FC5FC08C01E0
:1033F00015950795EF2BB9F508C0C40CD51C060D23
:10340000171D2196AC16BD069CF0D401ED91FC91E0
:103410000480F581E02DC401BE01A601910119953A
:103420000E191F0917FDE9CF2196AC16BD066CF7E2
:10343000DF91CF911F910F91FF90EF90DF90CF9090
:10344000BF90AF909F908F907F906F905F904F90C4
:103450003F902F900895C40CD51C060D171D219682
:10346000AC16BD062CF3D401ED91FC910480F581DE
:10347000E02DC401B601AE01910119950E191F0985
:1034800017FFEDCFE8CF11E0412E512CAACF6627D0
:103490007727661977097ECFEE24FF24E41AF50A10
:1034A00073CFF094E194F108F3948ECF01969FCFFF
:1034B0004F925F926F927F928F929F92AF92BF9244
:1034C000CF92DF92EF92FF920F931F936C015B01FB
:1034D0004A0139012801DC01ED91FC910284F38558
:1034E000E02D87011995D601ED91FC91A401415081
:1034F0005040440D551D0284F385E02DC601B501F1
:1035000093011995D601ED91FC910084F185E02D90
:10351000C601B501A40192011995D601ED91FC9166
:103520000894A108B108A60CB71C0084F185E02D11
:10353000C601B501A401920119951F910F91FF9049
:10354000EF90DF90CF90BF90AF909F908F907F9043
:103550006F905F904F900895CF92DF92EF92FF921D
:103560000F931F93DC016B017801ED91FC918A01AF
:1035700001501040020F131F0680F781E02D9601C5
:1035800019951F910F91FF90EF90DF90CF900895C4
:10359000CF92DF92EF92FF920F931F93DC016A01AB
:1035A000C9017801ED91FC9111979B0121503040A8
:1035B000280F391F0680F781E02DCD01860119956E
:1035C0001F910F91FF90EF90DF90CF9008956F9231
:1035D0007F928F929F92AF92BF92CF92DF92EF92A3
:1035E000FF920F931F93CF93DF935C013A01690120
:1035F0004801C60ED71E6C157D058CF4EB01D50174
:10360000ED91FC910084F185E02DC501BE01A3017F
:103610009401870119952196CC15DD0584F3DF917E
:10362000CF911F910F91FF90EF90DF90CF90BF90BF
:10363000AF909F908F907F906F900895EF92FF9240
:103640000F931F93FC017B01A081B18120853185FF
:10365000028513851E960D90BC91A02D60E070E050
:1036600040E050E0FD0119951F910F91FF90EF9000
:1036700008952F923F924F925F926F927F928F9216
:103680009F92AF92BF92CF92DF92EF92FF920F93F1
:103690001F93DF93CF93CDB7DEB7AA970FB6F894F9
:1036A000DEBF0FBECDBF5C014A0118013701CE82DB
:1036B000DC0118968D919C911997681779070CF089
:1036C0001DC21A968D919C911B97481759070CF0B3
:1036D00015C2DD24F601EE0FFF1FFAA7E9A77F014F
:1036E000EC0CFD1CD701AA0FBB1FCD01860F971F45
:1036F000181619060CF002C2A601440F551F440FFC
:10370000551F440F551FCA01880D991D181619061B
:103710000CF0F4C185E0289F800111241C830B83E9
:103720002B017A8369831D829401295F3F4F3A8779
:103730002987C40106969C878B87F4013596FE87FE
:10374000ED8784010C5F1F4F188B0F8794012D5F4D
:103750003F4F3A8B298BC40102969C8B8B8BF401D3
:103760003196FE8BED8B8A010C191D09080D191D70
:10377000188F0F8BA80DB91DBA8FA98F9601220F34
:10378000331F220F331F3C8F2B8F280D391D3E8F87
:103790002D8FC701880D991D98A38F8FA9A5BAA554
:1037A000A80DB91DBAA3A9A3F401EC0DFD1DFCA33E
:1037B000EBA30B8D1C8D0C0D1D1D080D191D1EA3DB
:1037C0000DA3D9C0EB81FC81EC5FFD4F84914F824A
:1037D00058866214730409F4D9C0BE81B13009F46B
:1037E000A6C1E82FF0E0F8A7EFA380FDA9C2D5019C
:1037F000ED91FC910684F785E02DC501B201A4018D
:103800009601860173011995EFA1F8A5F695E79544
:10381000F8A7EFA3E0FD24C2D501ED91FC91068449
:10382000F785E02DC5016F8178854BA15CA19601DC
:10383000860173011995EFA1F8A5F695E795F8A70C
:10384000EFA3E0FD24C2D501ED91FC910684F7853C
:10385000E02DC5016F81788549A15AA196018601A5
:1038600073011995EFA1F8A5F695E795F8A7EFA3D1
:10387000E0FD24C2D501ED91FC910684F785E02D91
:10388000C5016F8178854F8D58A19601860173011E
:103890001995EFA1F8A5F695E795F8A7EFA3E0FD38
:1038A00024C2D501ED91FC910684F785E02DC50178
:1038B0006F8178854D8D5E8D960186017301199516
:1038C000EFA1F8A5F695E795F8A7EFA3E0FD24C2D0
:1038D000D501ED91FC914B8D5C8D4C0D5D1D480D1E
:1038E000591D0684F785E02DC5016F817885960105
:1038F000860173011995EFA1F8A5F695E795F8A74C
:10390000EFA3E0FD9DC1D501ED91FC910684F78503
:10391000E02DC5016F817885498D5A8D960186010C
:1039200073011995EFA1F8A5F695E795EF2B09F42A
:10393000D5C0D501ED91FC910684F785E02DC50138
:103940006F8178854F89588D96018601710119958F
:10395000BD81BF5FBD834C0C5D1CEB81FC8131964A
:10396000FC83EB8309811A810F5F1F4F1A83098340
:10397000B63009F4C3C01D81153009F023CF80E0B3
:103980004F8258866214730409F027CF2E812130AC
:1039900009F4E4C1A82FB0E0B8A7AFA380FF0DC021
:1039A000D501ED91FC910684F785E02DC501B201AA
:1039B000A4019601860173011995EFA1F8A5F6956A
:1039C000E795F8A7EFA3E0FF11C0D501ED91FC91B9
:1039D0000684F785E02DC5016F8178854BA15CA138
:1039E0009601860173011995EFA1F8A5F695E79563
:1039F000F8A7EFA3E0FF11C0D501ED91FC9106847B
:103A0000F785E02DC5016F81788549A15AA19601FE
:103A1000860173011995EFA1F8A5F695E795F8A72A
:103A2000EFA3E0FF11C0D501ED91FC910684F7856D
:103A3000E02DC5016F8178854F8D58A196018601D3
:103A400073011995EFA1F8A5F695E795F8A7EFA3EF
:103A5000E0FF11C0D501ED91FC910684F785E02DC2
:103A6000C5016F8178854D8D5E8D9601860173014C
:103A70001995EFA1F8A5F695E795F8A7EFA3E0FF54
:103A800011C0D501ED91FC910684F785E02DC501AB
:103A90006F8178854DA15EA196018601730119950C
:103AA000EFA1F8A5F695E795F8A7EFA3E0FF11C001
:103AB000D501ED91FC910684F785E02DC5016F815C
:103AC0007885498D5A8D9601860173011995EFA16C
:103AD000F8A5F695E795EF2B09F43ACFD501ED91CE
:103AE000FC910684F785E02DC5016F8178854F89AB
:103AF000588D96018601730119952ACFAA960FB6A3
:103B0000F894DEBF0FBECDBFCF91DF911F910F9113
:103B1000FF90EF90DF90CF90BF90AF909F908F90ED
:103B20007F906F905F904F903F902F900895082F57
:103B300010E080FD9CC1D501ED91FC910480F581E0
:103B4000E02DC50169817A81A4019301199516952B
:103B5000079500FD99C1D501ED91FC910480F58197
:103B6000E02DC50169817A814D895E89930119959E
:103B70001695079500FD96C1D501ED91FC91048045
:103B8000F581E02DC50169817A814B895C899301BA
:103B900019951695079500FD93C1D501ED91FC91FE
:103BA0000480F581E02DC50169817A8149895A89AE
:103BB000930119951695079500FD90C1D501ED91DA
:103BC000FC910480F581E02DC50169817A814F85E2
:103BD0005889930119951695079500FD8DC1D5015A
:103BE000ED91FC910480F581E02DC50169817A8118
:103BF0004D855E85930119951695079500FD8AC13F
:103C0000D501ED91FC910480F581E02DC50169811C
:103C10007A814B855C859301199516950795012B43
:103C200009F417C1D501ED91FC910480F581E02DD7
:103C3000C50169817A8149855A859101199588CE96
:103C4000D501ED91FC910684F785E02DC5016F81CA
:103C50007885498D5A8D960186017101199562CE3C
:103C6000D501ED91FC910684F785E02DC5016F81AA
:103C700078854BA15CA19601860171011995EFA190
:103C8000F8A5F695E795F8A7EFA3E0FFDCCDD50101
:103C9000ED91FC910684F785E02DC5016F81788553
:103CA00049A15AA19601860171011995EFA1F8A5C4
:103CB000F695E795F8A7EFA3E0FFDCCDD501ED91F0
:103CC000FC910684F785E02DC5016F8178854F8DC5
:103CD00058A19601860171011995EFA1F8A5F695F5
:103CE000E795F8A7EFA3E0FFDCCDD501ED91FC91BE
:103CF0000684F785E02DC5016F8178854D8D5E8D39
:103D00009601860171011995EFA1F8A5F695E79541
:103D1000F8A7EFA3E0FFDCCDD501ED91FC914B8D31
:103D20005C8D4C0D5D1D480D591D0684F785E02DF9
:103D3000C5016F8178859601860171011995DBCDEA
:103D4000D501ED91FC910684F785E02DC501B20106
:103D5000A401960186017101199556CD082F10E036
:103D600080FF0CC0D501ED91FC910480F581E02D20
:103D7000C50169817A81A40193011995169507956A
:103D800000FF0DC0D501ED91FC910480F581E02D7F
:103D9000C50169817A814D895E89930119951695CE
:103DA000079500FF0DC0D501ED91FC910480F581D0
:103DB000E02DC50169817A814B895C899301199550
:103DC0001695079500FF0DC0D501ED91FC9104807B
:103DD000F581E02DC50169817A8149895A8993016C
:103DE00019951695079500FF0DC0D501ED91FC9131
:103DF0000480F581E02DC50169817A814F8558895C
:103E0000930119951695079500FF0DC0D501ED9109
:103E1000FC910480F581E02DC50169817A814D8591
:103E20005E85930119951695079500FF0DC0D50184
:103E3000ED91FC910480F581E02DC50169817A81C5
:103E40004B855C859301199516950795012B09F40F
:103E50007FCDD501ED91FC910480F581E02DC50168
:103E600069817A8149855A859301199571CDD5016A
:103E7000ED91FC910480F581E02DC50169817A8185
:103E8000A4019101199563CED501ED91FC910480B7
:103E9000F581E02DC50169817A814D895E899101A5
:103EA000199566CED501ED91FC910480F581E02D48
:103EB000C50169817A814B895C899101199569CE27
:103EC000D501ED91FC910480F581E02DC50169815A
:103ED0007A8149895A89910119956CCED501ED9164
:103EE000FC910480F581E02DC50169817A814F85BF
:103EF0005889910119956FCED501ED91FC910480FF
:103F0000F581E02DC50169817A814D855E8591013C
:103F1000199572CED501ED91FC910480F581E02DCB
:103F2000C50169817A814B855C859101199575CEB2
:103F3000CF92EF92FF920F931F93CF93DF93EC01F9
:103F4000262F6A3009F443C06D30B9F16C857D8548
:103F50004E855F8508891989EA88FB88CC880E948C
:103F6000391B2C8986E0289FA00111248C859D8512
:103F7000480F591F5D874C878E898823F1F0622F87
:103F800070E09B01220F331F260F371F220F331FB4
:103F900088859985821B930B8417950774F4660FA7
:103FA000771F660F771F660F771F8E859F85860F99
:103FB000971F9F878E871D861C8681E090E0DF918A
:103FC000CF911F910F91FF90EF90CF9008952C8982
:103FD00030E0220F331F220F331F220F331F8E8535
:103FE0009F85820F931F9F878E871D861C86E5CF36
:103FF000FC0175876487578746870895FC0166230F
:1040000009F461E0648B0895FC01738B628B718B02
:10401000608B0895FC01668B08950895EF92FF92DE
:104020000F931F93FC017B01A081B1812085318515
:10403000028513851E960D90BC91A02D60E070E066
:1040400040E050E0FD0119951F910F91FF90EF9016
:104050000895DF92EF92FF920F931F938C01F62E3B
:10406000E42ED22E60E870E040EA50E00E94891908
:104070008BE593E0F80191838083F1A2E2A2D3A2C1
:1040800081E0808F15A214A21F910F91FF90EF90F5
:10409000DF900895DC01662309F03CC120E240E294
:1040A00050E05F96ED91FC919097908199968C915C
:1040B00099978095892380835D96ED91FC915E9719
:1040C000908198968C9198978095892380835896B3
:1040D0008C915897882309F00DC15996ED91FC9168
:1040E0005A97908196968C91969780958923808394
:1040F0005B96ED91FC915C97808197969C91979748
:10410000892B80835B96ED91FC915C9790819796CB
:104110008C9197978095892380835996ED91FC9196
:104120005A97908196968C91969780958923808353
:104130005B96ED91FC915C97808197969C91979707
:10414000892B80835B96ED91FC915C97908197968B
:104150008C91979780958923808345FDD0C059968F
:10416000ED91FC915A97908196968C9196978095B7
:10417000892380835B96ED91FC915C978081979673
:104180009C919797892B80835B96ED91FC915C972E
:10419000908197968C9197978095892380835996E3
:1041A000ED91FC915A97908196968C919697809577
:1041B000892380835B96ED91FC915C978081979633
:1041C0009C919797892B80835B96ED91FC915C97EE
:1041D000908197968C9197978095892380835996A3
:1041E000ED91FC915A97908196968C919697809537
:1041F000892380835B96ED91FC915C9780819796F3
:104200009C919797892B80835B96ED91FC915C97AD
:10421000908197968C919797809589238083599662
:10422000ED91FC915A97908196968C9196978095F6
:10423000892380835B96ED91FC915C9780819796B2
:104240009C919797892B80835B96ED91FC915C976D
:10425000908197968C919797809589238083599622
:10426000ED91FC915A97908196968C9196978095B6
:10427000892380835B96ED91FC915C978081979672
:104280009C919797892B80835B96ED91FC915C972D
:10429000908197968C91979780958923808340FF92
:1042A0003DC05996ED91FC915A97808196969C91CC
:1042B0009697892B80835B96ED91FC915C9780812A
:1042C00097969C919797892B80835B96ED91FC91B3
:1042D0005C97908197968C9197978095892380839E
:1042E0005D96ED91FC915E97808198969C91892BCB
:1042F000808308952EBD0DB407FEFDCFF1CF5996F2
:10430000ED91FC915A97808196969C919697892B76
:10431000808330CF21E241E250E0C3CE5996ED9147
:10432000FC915A97908196968C91969780958923C7
:104330008083C1CFDF92EF92FF920F931F93CF93B1
:10434000DF93EC01FB017B010894E11CF11CD4908C
:10435000DD2009F460C0A7014F5F5F4FF701249192
:10436000EF8DF8A1908189A5809589238083ED8DBB
:10437000FE8D908188A5809589238083888D8823F0
:1043800009F44CC12EBD0DB407FEFDCFED8DFE8DA1
:10439000808198A5892B80838A010F5F1F4FFA01C6
:1043A0003491832F8F7781F18150A801682F70E0BD
:1043B0006D5F7F4FD701A60FB71F63507040FA01A2
:1043C0004F5F5F4F2491EF8DF8A1808199A5892BD4
:1043D0008083ED8DFE8D908188A5809589238083D3
:1043E000888D882301F12EBD0DB407FEFDCFED8D24
:1043F000FE8D808198A5892B80834A175B07F9F68B
:104400006F5F7F4F060F171F37FDF6C07801DA94F4
:10441000DD2009F0A0CFDF91CF911F910F91FF9088
:10442000EF90DF90089527FFA7C0E98DFA8D808176
:104430009EA1892B8083EB8DFC8D80819FA1892B90
:104440008083EB8DFC8D90818FA180958923808363
:1044500026FFCAC0E98DFA8D80819EA1892B8083B9
:10446000EB8DFC8D80819FA1892B8083EB8DFC8D52
:1044700090818FA180958923808325FFADC0E98D30
:10448000FA8D80819EA1892B8083EB8DFC8D8081AC
:104490009FA1892B8083EB8DFC8D90818FA18095CE
:1044A0008923808324FF90C0E98DFA8D80819EA1AD
:1044B000892B8083EB8DFC8D80819FA1892B80834C
:1044C000EB8DFC8D90818FA180958923808323FFC4
:1044D00073C0E98DFA8D80819EA1892B8083EB8D3D
:1044E000FC8D80819FA1892B8083EB8DFC8D908139
:1044F0008FA180958923808322FF56C0E98DFA8D94
:1045000080819EA1892B8083EB8DFC8D80819FA172
:10451000892B8083EB8DFC8D90818FA180958923E1
:10452000808321FF39C0E98DFA8D80819EA1892B7E
:104530008083EB8DFC8D80819FA1892B8083EB8D07
:10454000FC8D90818FA180958923808320FF1CC0E2
:10455000E98DFA8D80819EA1892B8083EB8DFC8D66
:1045600080819FA1892B8083EB8DFC8D90818FA111
:104570008095892380833BCFE98DFA8D90818EA130
:1045800080958923808357CFE98DFA8D90818EA104
:10459000809589238083E2CFE98DFA8D90818EA169
:1045A000809589238083C5CFE98DFA8D90818EA176
:1045B000809589238083A8CFE98DFA8D90818EA183
:1045C0008095892380838BCFE98DFA8D90818EA190
:1045D0008095892380836ECFE98DFA8D90818EA19D
:1045E00080958923808351CFE98DFA8D90818EA1AA
:1045F00080958923808334CFF8018491682F70E0FF
:104600006F3F710509F4F3C080E090E078010894F1
:10461000E11CF11C0E946910DA94FACE27FFA7C0B2
:10462000E98DFA8D80819EA1892B8083EB8DFC8D95
:1046300080819FA1892B8083EB8DFC8D90818FA140
:1046400080958923808326FFCAC0E98DFA8D8081F9
:104650009EA1892B8083EB8DFC8D80819FA1892B6E
:104660008083EB8DFC8D90818FA180958923808341
:1046700025FFADC0E98DFA8D80819EA1892B8083B5
:10468000EB8DFC8D80819FA1892B8083EB8DFC8D30
:1046900090818FA180958923808324FF90C0E98D2C
:1046A000FA8D80819EA1892B8083EB8DFC8D80818A
:1046B0009FA1892B8083EB8DFC8D90818FA18095AC
:1046C0008923808323FF73C0E98DFA8D80819EA1A9
:1046D000892B8083EB8DFC8D80819FA1892B80832A
:1046E000EB8DFC8D90818FA180958923808322FFA3
:1046F00056C0E98DFA8D80819EA1892B8083EB8D38
:10470000FC8D80819FA1892B8083EB8DFC8D908116
:104710008FA180958923808321FF39C0E98DFA8D8F
:1047200080819EA1892B8083EB8DFC8D80819FA150
:10473000892B8083EB8DFC8D90818FA180958923BF
:10474000808320FF1CC0E98DFA8D80819EA1892B7A
:104750008083EB8DFC8D80819FA1892B8083EB8DE5
:10476000FC8D90818FA18095892380830FCEE98D68
:10477000FA8D90818EA180958923808357CFE98D12
:10478000FA8D90818EA1809589238083E2CFE98D77
:10479000FA8D90818EA1809589238083C5CFE98D84
:1047A000FA8D90818EA1809589238083A8CFE98D91
:1047B000FA8D90818EA18095892380838BCFE98D9E
:1047C000FA8D90818EA18095892380836ECFE98DAB
:1047D000FA8D90818EA180958923808351CFE98DB8
:1047E000FA8D90818EA180958923808334CF64EFE8
:1047F00071E080E090E00ACF0F931F93CF93DF9397
:10480000EC018B011BA61AA68AA161E00E943F1150
:1048100089A161E00E943F11E9A14E2F50E0FA0109
:10482000EE5CFE4FE491F0E0EE0FFF1FE250FF4F11
:10483000859194919E8F8D8FEAA12E2F30E0F90102
:10484000EE5CFE4FE491F0E0EE0FFF1FE250FF4FF1
:104850008591949198A38F8F48585E4FFA01849167
:1048600088A728583E4FF901849189A7888D88230D
:1048700011F10E944E4380E00E943D4381E00E947E
:104880002E4380E00E943843ED8DFE8D908188A5F7
:104890008095892380838BA1882309F04AC0011564
:1048A000110521F0CE01B8010E949A21DF91CF912C
:1048B0001F910F9108958DA161E00E943F118CA17D
:1048C00061E00E943F11EDA14E2F50E0FA01EE5C35
:1048D000FE4FE491F0E0EE0FFF1FE250FF4FA59175
:1048E000B491BC8FAB8FECA12E2F30E0F901EE5CC0
:1048F000FE4FE491F0E0EE0FFF1FE250FF4F859175
:1049000094919A8F898F48585E4FFA0194919FA392
:1049100028583E4FF90184918EA38C91909598234D
:104920009C93E98DFA8D90818EA180958923808357
:10493000ABCF61E00E943F118BA161E00E94821128
:1049400064EF71E080E090E00E9469108BA160E06C
:104950000E94821164EF71E080E090E00E94691093
:104960008BA161E00E94821164EF71E080E090E031
:104970000E94691094CF0F93DC015F96ED91FC913A
:104980009097908199968C919997809589238083AF
:104990005D96ED91FC915E97908198968C91989799
:1049A00080958923808358968C915897882309F4A1
:1049B000BFC78AE28EBD0DB407FEFDCF5D96ED91B7
:1049C000FC915E97808198969C919897892B808323
:1049D0005F96ED91FC919097808199969C91999723
:1049E000892B80835D96ED91FC915E9790819896DE
:1049F0008C91989780958923808358968C915897AD
:104A0000882309F494C61EBC0DB407FEFDCF5D9645
:104A1000ED91FC915E97808198969C919897892B57
:104A200080839A963C919A97360F5F96ED91FC9110
:104A30009097808199969C919997892B80835D9618
:104A4000ED91FC915E97908198968C9198978095C6
:104A50008923808358968C915897882311F40C945D
:104A6000CB303EBD0DB407FEFDCF5D96ED91FC91C0
:104A70005E97808198969C919897892B80835F960A
:104A8000ED91FC919097808199969C919997892BB3
:104A900080835D96ED91FC915E97908198968C91C4
:104AA000989780958923808358968C91589788236E
:104AB00009F43CC51EBC0DB407FEFDCF5D96ED911B
:104AC000FC915E97808198969C919897892B808322
:104AD0009A963C919A97320F5F96ED91FC91909740
:104AE000808199969C919997892B80835D96ED9111
:104AF000FC915E97908198968C91989780958923E8
:104B0000808358968C915897882311F40C94B92F70
:104B10003EBD0DB407FEFDCF5D96ED91FC915E9715
:104B2000808198969C919897892B80835F96ED91D0
:104B3000FC919097908199968C9199978095892373
:104B400080835D96ED91FC915E97908198968C9113
:104B5000989780958923808358968C9158978823BD
:104B600009F4E7C38BE28EBD0DB407FEFDCF5D9661
:104B7000ED91FC915E97808198969C919897892BF6
:104B800080835F96ED91FC919097808199969C919E
:104B90009997892B80835D96ED91FC915E9790812A
:104BA00098968C91989780958923808358968C91BC
:104BB0005897882309F4BCC21EBC0DB407FEFDCF74
:104BC0005D96ED91FC915E97808198969C91989767
:104BD000892B80839B962C919B97240F5F96ED9158
:104BE000FC919097808199969C919997892B8083CD
:104BF0005D96ED91FC915E97908198968C91989737
:104C000080958923808358968C915897882311F436
:104C10000C94A82E2EBD0DB407FEFDCF5D96ED9130
:104C2000FC915E97808198969C919897892B8083C0
:104C30005F96ED91FC919097808199969C919997C0
:104C4000892B80835D96ED91FC915E97908198967B
:104C50008C91989780958923808358968C9158974A
:104C6000882309F464C11EBC0DB407FEFDCF5D9618
:104C7000ED91FC915E97808198969C919897892BF5
:104C800080839B962C919B97200F5F96ED91FC91D2
:104C90009097808199969C919997892B80835D96B6
:104CA000ED91FC915E97908198968C919897809564
:104CB0008923808358968C915897882309F437C7A5
:104CC0002EBD0DB407FEFDCF5D96ED91FC915E9774
:104CD000808198969C919897892B80835F96ED911F
:104CE000FC919097908199968C91999780958923C2
:104CF00080835D96ED91FC915E97908198968C9162
:104D0000989780958923808358968C91589788230B
:104D100081F08CE28EBD0DB407FEFDCF5D96ED9166
:104D2000FC915E97808198969C91892B80830F914E
:104D300008955996ED91FC915A97908196968C9191
:104D400096978095982390835B96ED91FC915C9764
:104D5000808197969C919797892B80835B96ED91A4
:104D6000FC915C97908197968C919797809598236A
:104D700090835996ED91FC915A97908196968C91DB
:104D800096978095982390835B96ED91FC915C9724
:104D9000808197969C919797892B80835B96ED9164
:104DA000FC915C97908197968C9197978095892339
:104DB00080835996ED91FC915A97808196969C91AB
:104DC0009697892B80835B96ED91FC915C9780810F
:104DD00097969C919797892B80835B96ED91FC9198
:104DE0005C97908197968C91979780958923808383
:104DF0005996ED91FC915A97908196968C91969741
:104E00008095892380835B96ED91FC915C978081EE
:104E100097969C919797892B80835B96ED91FC9157
:104E20005C97908197968C91979780958923808342
:104E30005996ED91FC915A97808196969C91969700
:104E4000892B80835B96ED91FC915C97808197968E
:104E50009C919797892B80835B96ED91FC915C9751
:104E6000908197968C919797809589238083599606
:104E7000ED91FC915A97808196969C919697892BFB
:104E800080835B96ED91FC915C97808197969C91D5
:104E90009797892B80835B96ED91FC915C9790812D
:104EA00097968C9197978095892380835996ED9159
:104EB000FC915A97908196968C919697809589232C
:104EC00080835B96ED91FC915C97808197969C9195
:104ED0009797892B80835B96ED91FC915C979081ED
:104EE00097968C9197978095892380835996ED9119
:104EF000FC915A97908196968C91969780958923EC
:104F000080835B96ED91FC915C97808197969C9154
:104F10009797892B80835B96ED91FC915C979081AC
:104F200097968C919797809589238083F7CE599691
:104F3000ED91FC915A97908196968C9196978095D9
:104F4000892380835B96ED91FC915C978081979695
:104F50009C919797892B80835B96ED91FC915C9750
:104F6000908197968C919797809589238083599605
:104F7000ED91FC915A97908196968C919697809599
:104F8000892380835B96ED91FC915C978081979655
:104F90009C919797892B80835B96ED91FC915C9710
:104FA000908197968C9197978095892380835996C5
:104FB000ED91FC915A97908196968C919697809559
:104FC000892380835B96ED91FC915C978081979615
:104FD0009C919797892B80835B96ED91FC915C97D0
:104FE000908197968C919797809589238083599685
:104FF000ED91FC915A97908196968C919697809519
:10500000892380835B96ED91FC915C9780819796D4
:105010009C919797892B80835B96ED91FC915C978F
:10502000908197968C919797809589238083599644
:10503000ED91FC915A97908196968C9196978095D8
:10504000892380835B96ED91FC915C978081979694
:105050009C919797892B80835B96ED91FC915C974F
:10506000908197968C919797809589238083599604
:10507000ED91FC915A97908196968C919697809598
:10508000892380835B96ED91FC915C978081979654
:105090009C919797892B80835B96ED91FC915C970F
:1050A000908197968C9197978095892380835996C4
:1050B000ED91FC915A97908196968C919697809558
:1050C000892380835B96ED91FC915C978081979614
:1050D0009C919797892B80835B96ED91FC915C97CF
:1050E000908197968C919797809589238083599684
:1050F000ED91FC915A97908196968C919697809518
:10510000892380835B96ED91FC915C9780819796D3
:105110009C919797892B80835B96ED91FC915C978E
:10512000908197968C9197978095892380839FCDC6
:105130005996ED91FC915A97908196968C919697FD
:105140008095892380835B96ED91FC915C978081AB
:1051500097969C919797892B80835B96ED91FC9114
:105160005C97908197968C919797809589238083FF
:105170005996ED91FC915A97908196968C919697BD
:105180008095892380835B96ED91FC915C9780816B
:1051900097969C919797892B80835B96ED91FC91D4
:1051A0005C97908197968C919797809589238083BF
:1051B0005996ED91FC915A97908196968C9196977D
:1051C0008095892380835B96ED91FC915C9780812B
:1051D00097969C919797892B80835B96ED91FC9194
:1051E0005C97908197968C9197978095892380837F
:1051F0005996ED91FC915A97908196968C9196973D
:105200008095892380835B96ED91FC915C978081EA
:1052100097969C919797892B80835B96ED91FC9153
:105220005C97908197968C9197978095892380833E
:105230005996ED91FC915A97908196968C919697FC
:105240008095892380835B96ED91FC915C978081AA
:1052500097969C919797892B80835B96ED91FC9113
:105260005C97908197968C919797809589238083FE
:105270005996ED91FC915A97908196968C919697BC
:105280008095892380835B96ED91FC915C9780816A
:1052900097969C919797892B80835B96ED91FC91D3
:1052A0005C97908197968C919797809589238083BE
:1052B0005996ED91FC915A97908196968C9196977C
:1052C0008095892380835B96ED91FC915C9780812A
:1052D00097969C919797892B80835B96ED91FC9193
:1052E0005C97908197968C9197978095892380837E
:1052F0005996ED91FC915A97908196968C9196973C
:105300008095892380835B96ED91FC915C978081E9
:1053100097969C919797892B80835B96ED91FC9152
:105320005C97908197968C9197978095892380833D
:1053300047CC5996ED91FC915A97908196968C9115
:1053400096978095892380835B96ED91FC915C977D
:10535000808197969C919797892B80835B96ED919E
:10536000FC915C97908197968C9197978095892373
:1053700080835996ED91FC915A97908196968C91E5
:1053800096978095892380835B96ED91FC915C973D
:10539000808197969C919797892B80835B96ED915E
:1053A000FC915C97908197968C9197978095892333
:1053B00080835996ED91FC915A97808196969C91A5
:1053C0009697892B80835B96ED91FC915C97808109
:1053D00097969C919797892B80835B96ED91FC9192
:1053E0005C97908197968C9197978095892380837D
:1053F0005996ED91FC915A97908196968C9196973B
:105400008095892380835B96ED91FC915C978081E8
:1054100097969C919797892B80835B96ED91FC9151
:105420005C97908197968C9197978095892380833C
:105430005996ED91FC915A97808196969C919697FA
:10544000892B80835B96ED91FC915C978081979688
:105450009C919797892B80835B96ED91FC915C974B
:10546000908197968C919797809589238083599600
:10547000ED91FC915A97908196968C919697809594
:10548000892380835B96ED91FC915C978081979650
:105490009C919797892B80835B96ED91FC915C970B
:1054A000908197968C9197978095892380835996C0
:1054B000ED91FC915A97808196969C919697892BB5
:1054C00080835B96ED91FC915C97808197969C918F
:1054D0009797892B80835B96ED91FC915C979081E7
:1054E00097968C9197978095892380835996ED9113
:1054F000FC915A97808196969C919697892B8083F0
:105500005B96ED91FC915C97808197969C91979723
:10551000892B80835B96ED91FC915C9790819796A7
:105520008C91979780958923808321CB5996ED9113
:10553000FC915A97908196968C91969780958923A5
:1055400080835B96ED91FC915C97808197969C910E
:105550009797892B80835B96ED91FC915C97908166
:1055600097968C9197978095892380835996ED9192
:10557000FC915A97908196968C9196978095892365
:1055800080835B96ED91FC915C97808197969C91CE
:105590009797892B80835B96ED91FC915C97908126
:1055A00097968C9197978095892380835996ED9152
:1055B000FC915A97908196968C9196978095892325
:1055C00080835B96ED91FC915C97808197969C918E
:1055D0009797892B80835B96ED91FC915C979081E6
:1055E00097968C9197978095892380835996ED9112
:1055F000FC915A97908196968C91969780958923E5
:1056000080835B96ED91FC915C97808197969C914D
:105610009797892B80835B96ED91FC915C979081A5
:1056200097968C9197978095892380835996ED91D1
:10563000FC915A97908196968C91969780958923A4
:1056400080835B96ED91FC915C97808197969C910D
:105650009797892B80835B96ED91FC915C97908165
:1056600097968C9197978095892380835996ED9191
:10567000FC915A97908196968C9196978095892364
:1056800080835B96ED91FC915C97808197969C91CD
:105690009797892B80835B96ED91FC915C97908125
:1056A00097968C9197978095892380835996ED9151
:1056B000FC915A97908196968C9196978095892324
:1056C00080835B96ED91FC915C97808197969C918D
:1056D0009797892B80835B96ED91FC915C979081E5
:1056E00097968C9197978095892380835996ED9111
:1056F000FC915A97908196968C91969780958923E4
:1057000080835B96ED91FC915C97808197969C914C
:105710009797892B80835B96ED91FC915C979081A4
:1057200097968C919797809589238083C7C95996BE
:10573000ED91FC915A97908196968C9196978095D1
:10574000892380835B96ED91FC915C97808197968D
:105750009C919797892B80835B96ED91FC915C9748
:10576000908197968C9197978095892380835996FD
:10577000ED91FC915A97908196968C919697809591
:10578000892380835B96ED91FC915C97808197964D
:105790009C919797892B80835B96ED91FC915C9708
:1057A000908197968C9197978095892380835996BD
:1057B000ED91FC915A97908196968C919697809551
:1057C000892380835B96ED91FC915C97808197960D
:1057D0009C919797892B80835B96ED91FC915C97C8
:1057E000908197968C91979780958923808359967D
:1057F000ED91FC915A97908196968C919697809511
:10580000892380835B96ED91FC915C9780819796CC
:105810009C919797892B80835B96ED91FC915C9787
:10582000908197968C91979780958923808359963C
:10583000ED91FC915A97908196968C9196978095D0
:10584000892380835B96ED91FC915C97808197968C
:105850009C919797892B80835B96ED91FC915C9747
:10586000908197968C9197978095892380835996FC
:10587000ED91FC915A97908196968C919697809590
:10588000892380835B96ED91FC915C97808197964C
:105890009C919797892B80835B96ED91FC915C9707
:1058A000908197968C9197978095892380835996BC
:1058B000ED91FC915A97908196968C919697809550
:1058C000892380835B96ED91FC915C97808197960C
:1058D0009C919797892B80835B96ED91FC915C97C7
:1058E000908197968C91979780958923808359967C
:1058F000ED91FC915A97908196968C919697809510
:10590000892380835B96ED91FC915C9780819796CB
:105910009C919797892B80835B96ED91FC915C9786
:10592000908197968C9197978095892380836FC8F3
:105930005996ED91FC915A97908196968C919697F5
:105940008095892380835B96ED91FC915C978081A3
:1059500097969C919797892B80835B96ED91FC910C
:105960005C97908197968C919797809589238083F7
:105970005996ED91FC915A97908196968C919697B5
:105980008095892380835B96ED91FC915C97808163
:1059900097969C919797892B80835B96ED91FC91CC
:1059A0005C97908197968C919797809589238083B7
:1059B0005996ED91FC915A97808196969C91969775
:1059C000892B80835B96ED91FC915C978081979603
:1059D0009C919797892B80835B96ED91FC915C97C6
:1059E000908197968C91979780958923808359967B
:1059F000ED91FC915A97908196968C91969780950F
:105A0000892380835B96ED91FC915C9780819796CA
:105A10009C919797892B80835B96ED91FC915C9785
:105A2000908197968C91979780958923808359963A
:105A3000ED91FC915A97808196969C919697892B2F
:105A400080835B96ED91FC915C97808197969C9109
:105A50009797892B80835B96ED91FC915C97908161
:105A600097968C9197978095892380835996ED918D
:105A7000FC915A97908196968C9196978095892360
:105A800080835B96ED91FC915C97808197969C91C9
:105A90009797892B80835B96ED91FC915C97908121
:105AA00097968C9197978095892380835996ED914D
:105AB000FC915A97808196969C919697892B80832A
:105AC0005B96ED91FC915C97808197969C9197975E
:105AD000892B80835B96ED91FC915C9790819796E2
